:030000000202C039
:0C02C000787FE4F6D8FD75811A02023642
:1002A4003F065B4F666D7D077F6FF88CF95BFA152F
:0C02B400FA67FB04FBA6FC0CFE22F88C91
:10028600D3EF9400EE940040147DFA7C00ED1D70CF
:0D029600011CED4C70F7EF1F70E61E80E3B9
:0102A3002238
:0400C1008F828E8319
:1000C5007B057A00C3EA64809480402B7C007D0A1E
:1000D500AF82AE83120053EB1B70011A25E0240892
:1000E500F8A60408A6057C007D0AAF82AE8312003F
:1000F500538E838F8280CD79DF7A007B05D2A6EB84
:1001050025E02408F8E6FE08E624A4F58274023EFC
:10011500F583E493F580C2A6D2A78980C2A778FFAC
:10012500AF01EF08800123D8FDF9E4F5807F01FEDA
:0E013500120286EB1B70011ABAFFC2BBFFBF9D
:010143002299
:080003008F993099FDC299228A
:0902CC003098FDC298AF997E0044
:0102D5002206
:1001EB00E4F517F518AB14AA15A91685188285170F
:1001FB0083120026F58CF58AD28CD2AFD2A9AB1420
:10020B00AA15A91612000EC3E5189FE5179E5014E8
:10021B0074022518F518E43517F5177F1E7E0012AA
:0B022B00028680DAC28CC2AFC2A9229A
:10014400AF906307FF53073FEF24FE602424FE6053
:100154003324FC603324F8603324F06033241F70AC
:1001640034E4FF1200037514FF7515027516BE8082
:100174000E7F051200037514FF7515027516AE1275
:1001840001EB80117F03800A7F0480067F018002D7
:0A0194007F02120003E590B4FFFBA8
:01019E00223E
:10023600758921759850E4F587758DFA758BFAD214
:100246008ED2ACD29CF519F51AAF1AAE191200C1AE
:0C0256001201447F057E0012028680ED3C
:03000B0002019F50
:10019F00C0E0C083C082C0D075D000C000C001C015
:1001AF0002C003C007AB14AA15A9168518828517BC
:1001BF0083120026F58CE5182401FFE435178F8292
:1001CF00F583120026F58AB2A5D007D003D002D04E
:0C01DF0001D000D0D0D082D083D0E0321C
:0300230002026274
:09026200C0E0C0D075D000C00757
:10026B00D392983098FDC298AF99EF251AF51AE4FE
:04027B003519F51923
:07027F00D007D0D0D0E0321F
:10002600BB010CE58229F582E5833AF583E022508F
:1000360006E92582F8E622BBFE06E92582F8E222D9
:0D004600E58229F582E5833AF583E49322F3
:10005300BC000BBE0029EF8DF084FFADF022E4CC91
:10006300F875F008EF2FFFEE33FEEC33FCEE9DEC5A
:10007300984005FCEE9DFE0FD5F0E9E4CEFD22EDA0
:10008300F8F5F0EE8420D21CFEADF075F008EF2FEA
:10009300FFED33FD4007985006D5F0F222C398FDDB
:0500A3000FD5F0EA2278
:10000E00E4FFFE1200A8600C0FEF70010E09E970FC
:05001E00F20A80EF2250
:1000A800BB010689828A83E0225002E722BBFE0256
:0900B800E32289828A83E4932289
:00000001FF
