:0300000002338246
:0C338200787FE4F6D8FD7581070226A9CB
:10000E0008049392969A92FA94939296FA020200A8
:10001E004040472424140CFF04042444241C0000F4
:10002E008080808080808080808080808080800042
:10003E0000000000000000000000000000000000B2
:10004E00000008080808080808080808080000004A
:10005E0010101010101010101010101010101000A2
:10006E0000048484848484848484848484040000CE
:10007E002020202020202020202020202020200092
:10008E0000FC040404FC040404FC040404FC00004E
:10009E00007F28242320202020212222227F0000DE
:1000AE000002424242C27E42424242C2020200006C
:1000BE0040404040784740404040407F40404000F4
:1000CE0000001011161010F0101014131000000084
:1000DE008181414121110D030D1121414181810089
:1000EE000000000000F8F0E0C080000000000000FA
:1000FE0000000000001F0F070301000000000000B9
:10010E0000000000000000000000000000000000E1
:10011E0000000000000000000000000000000000D1
:10012E00FF010101010101010101010101010101B3
:10013E0001010101010101010101010101010101A1
:10014E000101010101010101010101010101010191
:10015E000101010101010101010101010101010181
:10016E000101010101010101010101010101010171
:10017E000101010101010101010101010101010161
:10018E000101010101010101010101010101010151
:10019E00010101010101010101010101010101FF43
:1001AE00FF00000000000000000000000000000042
:1001BE000000000000000000000000000000000031
:1001CE000000000000000000000000000000000021
:1001DE000000000000000000000000000000000011
:1001EE000000000000000000000000000000000001
:1001FE0000000000000000000000000000000000F1
:10020E0000000000000000000000000000000000E0
:10021E00000000000000000000000000000000FFD1
:10022E00FF000000000000000000000000000000C1
:10023E0000000000000000000000000000000000B0
:10024E0000000000000000000000000000000000A0
:10025E000000000000000000000000000000000090
:10026E000000000000000000000000000000000080
:10027E000000000000000000000000000000000070
:10028E000000000000000000000000000000000060
:10029E00000000000000000000000000000000FF51
:1002AE00FF00000000000000000000000000000041
:1002BE000000000000000000000000000000000030
:1002CE000000000000000000000000000000000020
:1002DE000000000000000000000000000000000010
:1002EE000000000000000000000000000000000000
:1002FE0000000000000000000000000000000000F0
:10030E0000000000000000000000000000000000DF
:10031E00000000000000000000000000000000FFD0
:10032E00FF000000000000000000000000000000C0
:10033E0000000000000000000000000000000000AF
:10034E00000000000000000000000000000000009F
:10035E00000000000000000000000000000000008F
:10036E00000000000000000000000000000000007F
:10037E00000000000000000000000000000000006F
:10038E00000000000000000000000000000000005F
:10039E00000000000000000000000000000000FF50
:1003AE00FF00000000000000000000000000000040
:1003BE00000000000000000000000000000000002F
:1003CE00000000000000000000000000000000001F
:1003DE00000000000000000000000000000000000F
:1003EE0000000000000000000000000000000000FF
:1003FE0000000000000000000000000000000000EF
:10040E0000000000000000000000000000000000DE
:10041E00000000000000000000000000000000FFCF
:10042E00FF000000000000000000000000000000BF
:10043E0000000000000000000000000000000000AE
:10044E00000000000000000000000000000000009E
:10045E00000000000000000000000000000000008E
:10046E00000000000000000000000000000000007E
:10047E00000000000000000000000000000000006E
:10048E00000000000000000000000000000000005E
:10049E00000000000000000000000000000000FF4F
:1004AE00FF808080808080808080808080808080BF
:1004BE00808080808080808080808080808080802E
:1004CE00808080808080808080808080808080801E
:1004DE00808080808080808080808080808080800E
:1004EE0080808080808080808080808080808080FE
:1004FE0080808080808080808080808080808080EE
:10050E0080808080808080808080808080808080DD
:10051E00808080808080808080808080808080FF4E
:10052E0000E010080810E000000F102020100F004F
:10053E0000001010F8000000000020203F202000D6
:10054E00007008080808F00000302824222130002E
:10055E0000300808088870000018202121221C0095
:10056E000000804030F8000000060524243F2424BB
:10057E0000F88888880808000019202020110E0035
:10058E0000E0108888900000000F112020201F002E
:10059E0000180808886818000000003E01000000DE
:1005AE000070880808887000001C222121221C007F
:1005BE0000F008080810E0000001122222110F00BE
:1005CE00000000C0C000000000000030300000003D
:1005DE0000808000808080000020312E0E312000AF
:1005EE00000026E0182610008041310D06196140EA
:1005FE00008080FE888888000000007F02040800CA
:10060E00000000808000000000003E3F3F3E0000E2
:10061E0000000000000000000000000000000000CC
:10062E0008F800F800F8080000033E013E03000041
:10063E00000808F8080800000020203F20200000D5
:10064E0008F830C00008F808203F200007183F00C7
:10065E0008F808080810E000203F202020100F00A6
:10066E0008F88888E8081000203F20202320180072
:10067E0008F88888E8081000203F200003000000DA
:10068E0008F88888E8081000203F20202320180052
:10069E000000C038E0000000203C23020227382072
:1006AE00180808F8080818000000203F2000000075
:1006BE00787E7E781E7E7E1E18183C3C3C3C3C3C70
:1006CE003C3C1818FFFFFFFF98FFFF99003C3C00D1
:1006DE00000808080C0C0C101014141818181C1C08
:1006EE001C2828282C2C2C2C2C3034343838383C10
:1006FE003C3C404044444848484C4C4C5C0301024E
:10070E0003010203050605060102030102030102AD
:10071E000306070102030606070102030102030591
:10072E000605060102030102030305010101010191
:10073E00010101010101010101010101010101019B
:10074E00010101010101010101010101010101018B
:10075E00010101010101050C0C0C0C0C10101414FC
:10076E0014181818202428282C2C2C2C2C3030301F
:10077E003034343434383C4444444848484C4C506B
:10078E0050505050010203040501050103050103F9
:10079E000503030103010203060701020306010319
:1007AE000607030301030501030501050102030406
:1007BE000501010101010101010101010101010117
:1007CE00010101010101010101010101010101010B
:1007DE0001010101010101010101010101010404F5
:1007EE0008080C0C10101414141818182428282C8F
:1007FE002C2C2C2C303030303434343438444444A7
:10080E004848484C4C505054545858010501050165
:10081E000501050103050103050302030102030699
:10082E000701020306020306070301030501030580
:10083E00010501050105010501010101010101018A
:10084E000105010105010105050101050101010176
:10085E000501010501010501050101050101010166
:10086E00010101010100000404080808080C10141D
:10087E00181C20242828282C2C2C2C2C30303030DE
:10088E0034343434343838383C4044484C50545462
:10089E00545458585C5C0103010300010203030326
:1008AE00030303030301020301020306070102030C
:1008BE0006010203060701020303030303030300F9
:1008CE0001020301030103020202020202020202FA
:1008DE0002020202020202020202020202020202EA
:1008EE0002020202020202020202020202020202DA
:1008FE0002020202020202020202020202020202CA
:10090E0002020C0C0C0C0C10101414141818181CD9
:10091E001C1C1C1C2024282C2C30343440404040FD
:10092E004444444448484C4C4C4C50505050500158
:10093E000203040501050103050103050102030479
:10094E000504050506070606070203040501020451
:10095E000501050104050601020405060505050548
:10096E000505050505050505050505050505050529
:10097E000505050505050505050505050505053FDF
:09098E00065B4F666D7D077F6F6B
:06330500C2A47F027E005D
:10330B00D3EF9400EE940040147DFA7C00ED1D7019
:0D331B00011CED4C70F7EF1F70E61E80E303
:013328002282
:0D336800D2A0C2A2D2A17580FF3087FD2245
:0D32DC0074D62FF58274063EF583E493FF4F
:1032E900123368D2A0D2A2C2A18F80C2A0E4FFFE8D
:0B32F9000FBF00010EEF64144E70F5D3
:0133040022A6
:0E335A00123368D2A0C2A2C2A18F80C2A022EC
:0E327C00900049E4F0A304F0900049A3E0FFA5
:10328A00EF14600E14601424027018123305D2A3CE
:10329A00800ED2A4123307C2A38005123305C2A33B
:0432AA0012330722B2
:093244007FE87E0312330B7F02C8
:10324D0012328AE4900128F0900128E0FFC394081F
:10325D00501C123340E4FF123351E4FDE4FF1232EF
:0E326D00E90DEDB440F6900128E004F080DA9F
:01327B002230
:103329007F0112328A900128E0FBA3E0FAA3E0F9B9
:07333900900002121BA3FF2C
:09334000EF540744B8FF02335AB0
:08334900E004FF123340AF0560
:09335100EF543F4440FF02335ADF
:102CC100EFC4F8540FC868FFEEC454F048FE742EE8
:0A2CD1002FF974053EFA7BFF7F0225
:102CDB0090012DEBF0A3EAF0A3E9F090012CEFF0BB
:102CEB0012334CE4FCEDB43805EC64076007EC7070
:102CFB0008EDB420047FFF802F90012CE06013A31C
:102D0B00E0FBA3E0FAA3E0F98C82758300121BA30E
:102D1B00801590012DE0FBA3E0FAA3E0F98C8275FE
:102D2B008300121BA34401FF1232E90CECB408B56B
:102D3B0090012C123349ECC39410502FEDB438058D
:102D4B00EC640F6008ECB40808EDB420047FFF803E
:102D5B001490012DE0FBA3E0FAA3E0F98C827583BC
:0B2D6B0000121BA3FF1232E90C80CB0A
:012D7600223A
:1030E100900049A3E0FF12328A7A01790E900047DD
:0730F100A3E0FF7BFFE4FDFB
:1030F800900129EBF0A3EAF0A3E9F0900128EFF0A2
:1031080012334CE4FC900129E0FBA3E475F00112B2
:103118001CEAA9F0FA121B8AFF1232E90CECB4106F
:10312800E4900128123349E4FC900129E0FBA3E470
:1031380075F001121CEAA9F0FA121B8AFF1232E993
:053148000CECB410E4E2
:01314D00225F
:0D337500EF60047F3F80027F3E12335A223A
:102A1500AF90EFF4543F24FE601D24FE602A24FC91
:102A2500605A24F87003022AC924F07003022AEEC2
:102A3500241F6003022B21C2967F647E0012330B94
:102A4500D29612305E020997900047E07002A3E02B
:102A55007003022B211230E1900048E024FEF09033
:102A65000047E034FFF0A3E0FF7BFF7A0079EE1228
:102A750030F8E590F47003022B2180F6900047E0D2
:102A8500FEA3E0FF64044E7003022B21A3E0FCA328
:102A9500E0FD4C6009EF64024E7003022B21AF0587
:102AA5001230E7900048E02402F0900047E034003F
:102AB500F0A3E0FF7BFF7A0079EE1230F8E590F4A1
:102AC500605A80F9900049E0FEA3E0FF4E604D1288
:102AD50030E7E4900049F0A31232837A0079EE12D0
:102AE50030EEE590F4603580F9900049E0FEA3E012
:102AF500FF4E7028900047E07004A3E06404601C5A
:102B05001230E712327C900047A3E0FF7BFF7A008A
:0C2B150079EEE4FD1230F8E590B4FFFB0F
:012B21002291
:080003008F993099FDC299228A
:0A338E00309805C298AF99227F061F
:013398002212
:1028FF00900126E4F0A37496F0900120E0FEA3E08F
:05290F00FF7D967C0035
:10291400900128EEF0A3EFF0A3ECF0A3EDF07F011B
:1029240012328A7BFF7A0579EE7D20E4FF122CDBDC
:102934007BFF7A0579FE7D28E4FF122CDB900129C8
:10294400E0C4F8540FC868FF900128E0C454F0486C
:10295400FE742E2FF974053EFA7BFF7D30E4FF12DE
:102964002CDB90012AE0FEA3E0FF7C007D3C121CDE
:10297400497D20122CC17BFF7A0579CE7D287F0208
:10298400122CDB90012AE0FEA3E0FF7C007D3C12C8
:102994001C497E007F0ACFCDCFCECCCE121C497D00
:1029A40030122CC190012AE0FEA3E0FF7C007D0AD6
:1029B400121C49EDC4F8540FC868FFECC454F04825
:1029C400FE742E2FF974053EFA7BFF7D387F0212C8
:1029D4002CDB7BFF7A06790E7D207F04122CDB7BB7
:1029E400FF7A0579DE7D287F04122CDB9000FFE05E
:1029F400C4F8540FC868FF9000FEE0C454F048FEC9
:102A0400742E2FF974053EFA7BFF7D307F04022C6F
:012A1400DBE6
:102FD400FD90005375F022EF121DFCEE75F022A453
:0B2FE4002583F583E0FB900040E0FF38
:0B2FEF00900131EFF0A3EDF0A3EBF038
:102FFA00E4FFFE900131E0FDC3EF9DEE94005053D3
:10300A0074002FF58274003EF583E0603F90004B18
:10301A00E0FBA3E0FAA3E0F97C00E92DF9EC3AFA27
:10302A00E92FF9EA3EFA121B8AFD900132E0B50552
:10303A001B90004BA3E0FAA3E0F98F828E83121B48
:10304A00A3FD900133E0B505037F00220FBF000105
:03305A000E80A045
:01305D002250
:1032AE00E4FFFE90005475F022EF121DFCEE75F057
:1032BE0022A42583F583E0FCA3E04C60037F00226B
:0D32CE000FBF00010EEF64054E70D87F01A8
:0132DB0022D0
:102EBD00900106E07002A3E06026E4FCFDD39001D2
:102ECD0007E09D900106E09C40169000FCE0B407E1
:102EDD0008A3E0B430037F01220DBD00010C80DD9D
:102EED00E4FCFD90005C75F022ED121DFCEC75F01C
:102EFD0022A42583F583E0FEA3E04E603190005EB1
:102F0D0075F022ED121DFCEC75F022A42583F583DE
:102F1D00E0B4071A90005F75F022ED121DFCEC7500
:102F2D00F022A42583F583E0B430037F01220DBD8B
:0B2F3D0000010CED64054C70AA7F0041
:012F48002266
:10217B00FD90000F121BA3FB90012BE0FFA3E0903F
:0C218B000134CFF0A3EFF0900040E0FF23
:0B219700900131EFF0A3EDF0A3EBF09E
:1021A200E4900136F0A3F0900131E0FF900136E0B7
:1021B200FCA3E0FDC39FEC94004003022273740071
:1021C2002DF58274003CF583E0FF64057003022262
:1021D2005FEF700302225F90004BE0FBA3E0FAA3E3
:1021E200E0F9900131E0FF7E00E92FF9EE3AFAE9D9
:1021F2002DF9EA3CFA121B8AFF900132E06F705D02
:1022020090004BA3E0FAA3E0F9900136E0FEA3E0D0
:10221200FFF5828E83121BA3FD900133E0FC6D70EB
:102222003C74002FF58274003EF583E014F0702DAB
:10223200ECC413135403FF12328A900132E0FF12EE
:102242003340A3E0543FFF123351E4FDFCE4FF129C
:1022520032E90DBD00010CED64044C70F0900137C1
:10226200E004F060030221A9900136E004F00221AB
:10227200A9900134E07002A3E060030223279001D9
:1022820036F0A3F0900136E0FEA3E0FFC39405EE22
:102292009400400302237D90005475F022EF121D3A
:1022A200FCEE75F022A42583F583E0FEA3E04E60E8
:1022B20063900136E0FEA3E090005275F022121DF9
:1022C200FCEE75F022A42583F583E0FD900132E057
:1022D200B5054190005375F022EF121DFCEE75F02A
:1022E20022A42583F583E0FF900133E0B507259012
:1022F2000136A3E090005475F022121DFCEE75F039
:1023020022A42583F58374FFF5F0121CD47F327E5C
:1023120000120003900137E004F07006900136E0ED
:1023220004F00222869000FCE0FF900132E06F7020
:102332004A9000FDE0FF900133E0B5073E9000FFB8
:10234200E024FFF09000FEE034FFF07B017A007998
:10235200FA12252E9000FEE0FCA3E0FD90013D74F0
:1023620028F0E4A3F0A3F0A304F0A37400F0A37494
:0B237200FAF07B077F037E00122800BA
:01237D00223D
:102C080090012BEBF0A3EAF0A3E9F090012BE0FB95
:102C1800A3E0FAA3E0F990000C121D2BFFAEF064BC
:102C2800054E7003022CC0121D00FDACF0EF7802B7
:102C3800C333CE33CED8F929F9EA3EFA900010EC26
:102C48008DF0121DCF90012BE0FBA3E0FAA3E0F971
:102C5800900002121BA3FD90000C121D2BAEF07801
:102C680002C333CE33CED8F929F9EA3EFA90000EE2
:102C7800ED121C1590012BE0FBA3E0FAA3E0F990FC
:102C88000003121BA3FD90000C121D2BAEF078025E
:102C9800C333CE33CED8F929F9EA3EFA90000FEDC6
:102CA800121C1590012BE0FBA3E0FAA3E0F99000B9
:092CB8000CE475F001121D632209
:1027E00090013D745CF0E4A3F0A3F07B01A304F03E
:1027F000A37400F074B6A3F07F04E41B7D01FCFE1B
:10280000900138EEF0A3EFF0A3ECF0A3EDF0AF03EE
:10281000900138E0F9A3E0FD900140E0FBA3E0FA6D
:10282000A3E0C98DF0121DB090013AE0FCA3E0FDD9
:10283000900140E0FBA3E0FAA3E0F9900004EC8DE6
:10284000F0121DCF900002EF121C1590013DE09098
:102850000003121C1590013EE0FFA3E090000CCF96
:102860008FF0121DCF900138E0FEA3E0FFC3940368
:10287000EE9400501A900145E4F0A37406F0EF6462
:10288000014E7005FE7F0880237E007F0E801D9024
:102890000145E4F0A37404F0900138E07004A3E073
:1028A00064037004FEFF80047E007F04900143EE09
:1028B000F0A3EFF0E4FFFED3900146E09F900145C6
:1028C000E09E403A900143E475F001121CEAFC746A
:1028D000BE25F0F58274063CF583E493FD9001403B
:1028E000E0FBA3E0FAA3E02406F9E43AFAE92FF9C1
:0E28F000EA3EFAED121C030FBF00010E80B984
:0128FE0022B7
:10252E00900003121BA3C413135403FF12328A121A
:10253E003339121D00D39402E5F0940050030225A6
:10254E00DC900003121BA3FF123351E4900138F00C
:10255E00A3F0900138E0FEA3E0FFC39404EE9400D4
:10256E0040030226A8900003121BA3FDC4131354AC
:10257E0003701AFCEF2DFFEC3EFEEF64404E700D23
:10258E007F0112328A123339E4FF12335190000365
:10259E00121BA3700E900138E07002A3E070047F4E
:1025AE00FF8017900002121BA3FDB407047F8080EA
:1025BE0009ED70047F018002E4FF1232E9900139C7
:1025CE00E004F0708D900138E004F0022560900078
:1025DE0003121BA324FEFED39400500B121D0064A5
:1025EE000145F070028013121D00640345F0700463
:1025FE00AF068007900003121BA3FF123351E49025
:10260E000138F0A3F0900138E0FEA3E0FFC394067A
:10261E00EE940040030226A8900003121BA3FDC4F3
:10262E0013135403701AFCEF2DFFEC3EFEEF6440C3
:10263E004E700D7F0112328A123339E4FF1233517C
:10264E00900003121BA3FF7E00900138E0FCA3E074
:10265E00FD2FFFEE3CFEC3EF9460EE9400502A90E7
:10266E000003121BA37008ED4C70047FFF801790BF
:10267E000002121BA3FDB407047F808009ED7004D5
:10268E007F018002E4FF1232E9900139E004F0701C
:0A269E0006900138E004F002261354
:0126A800220F
:1016EC007C007D22121C3774502FF974003EFA7B5B
:0116FC0001EC
:0B16FD00900128EBF0A3EAF0A3E9F055
:10170800900004121D2B45F07003021A93900128D3
:10171800E0FBA3E0FAA3E0F990000C121D2B45F0C2
:10172800700302180DE490012BF0A3F0900128E05B
:10173800FBA3E0FAA3E0F990000C121D2BFF900127
:101748002BE0FCA3E0FDC39FEC95F0400302180DCD
:10175800EDAE047802C333CE33CED8F9FF9001281A
:10176800E0FBA3E0FAA3E02FF9EA3EFA90000F129B
:101778001BA3C413135403FF12328A90012BE0FEFB
:10178800A3E07802C333CE33CED8F9FF900128E026
:10179800FBA3E0FAA3E02FF9EA3EFA90000E123319
:1017A8003C90012BE0FEA3E07802C333CE33CED8C1
:1017B800F9FF900128E0FBA3E0FAA3E02FF9EA3E45
:1017C800FA90000F121BA3543FFF123351E4FBFAA7
:1017D80074DA2BF58274063A1232E47F057E001221
:1017E800330B0BBB00010AEB64044A70E37F057EF0
:1017F8000012330B90012CE004F0700690012BE0EE
:1018080004F0021734900128E0FBA3E0FAA3E0F902
:10181800900003121BA3C413135403FF12332B901D
:101828000128E0FBA3E0FAA3E0F9121D00D394021B
:10183800E5F094005003021935900003121BA3FF32
:10184800123351E490012BF0A3F090012BE0FEA39A
:10185800E0FFC39404EE648094804003021A9390DE
:101868000128E0FBA3E0FAA3E0F9900003121BA310
:10187800FDC4131354037015FCEF2DFFEC3EFEEF6F
:1018880064404E7008123329E4FF12335190012846
:10189800E0FBA3E0FAA3E0F9900003121BA3700E8B
:1018A80090012BE07002A3E070047FFF8064900039
:1018B80002121BA3FDB4071BE92406F9E43AFA90C7
:1018C800012BE0FEA3E029F9EA3EFA121B8A4480C4
:1018D800FF803FED900128701EE0FBA3E0FAA3E033
:1018E8002406F9E43AFAA3E0FEA3E029F9EA3EFA6D
:1018F800121B8A4401801AE0FBA3E0FAA3E0240645
:10190800F9E43AFAA3E0FEA3E029F9EA3EFA121B49
:101918008AFF1232E97F057E0012330B90012CE01A
:1019280004F0700690012BE004F002185290012890
:10193800E0FBA3E0FAA3E0F9900003121BA324FE46
:10194800FED39400500D121D00640145F070047F11
:10195800018014121D00640345F07004AF0680076F
:10196800900003121BA3FF123351E490012BF0A344
:10197800F090012BE0FEA3E0FFC39406EE64809490
:10198800804003021A93900128E0FBA3E0FAA3E049
:10199800F9900003121BA3FDC4131354037015FC24
:1019A800EF2DFFEC3EFEEF64404E7008123329E441
:1019B800FF123351900128E0FBA3E0FAA3E0F9906D
:1019C8000003121BA3FF90012CE02FFF90012BE0D6
:1019D8003400FEEF24FEFDEE34FFFCD3ED9400EC62
:1019E800648094805009E964034A7003021A82C330
:1019F800EF9460EE648094804003021A82900003A2
:101A0800121BA3700E90012BE07002A3E070047FFC
:101A1800FF8064900002121BA3FDB4071BE9240693
:101A2800F9E43AFA90012BE0FEA3E029F9EA3EFA3C
:101A3800121B8A4480FF803FED900128701EE0FB56
:101A4800A3E0FAA3E02406F9E43AFAA3E0FEA3E04F
:101A580029F9EA3EFA121B8A4401801AE0FBA3E046
:101A6800FAA3E02406F9E43AFAA3E0FEA3E029F990
:101A7800EA3EFA121B8AFF1232E990012CE004F0C8
:0B1A8800700690012BE004F0021979B9
:011A93002230
:10237E0090012BEEF0A3EFF0A3EBF0A3EAF0A3E9AC
:10238E00F090012DE0FBA3E0FAA3E0F912252E90C8
:10239E00012DE0FBA3E0FAA3E0F9121D00FD900170
:1023AE002BE0FEA3E0FF6D7003EE65F0604690003B
:1023BE0004121D2BFDACF0900002121BA3FBC003F8
:1023CE0090012DE0FB900003121BA390013DF090B5
:1023DE00000C121D2BFB90013EE5F0F0A3EBF090EC
:1023EE00012DE0FB900140EBF0A3EAF0A3E9F0D061
:1023FE000302280090012DE0FBA3E0FAA3E0F912FE
:10240E001D00FFE5F0600302252DEF24FE604E1443
:10241E0070030224B01470030224EE24036003023E
:10242E00252D900003121BA3FED39400500302250A
:10243E002D900040E0FF900002121BA3FDEE24FC45
:10244E00FB122FEFEF700302252D90012DE0FBA361
:10245E00E0FAA3E0F990000374FC02252A90012D06
:10246E00E0FBA3E0FAA3E0F9900003121BA3FEC366
:10247E00945C400302252D900040E0FF9000021274
:10248E001BA3FDEE2404FB122FEFEF700302252D8C
:10249E0090012DE0FBA3E0FAA3E0F9900003740491
:1024AE00807A90012DE0FBA3E0FAA3E0F990000200
:1024BE00121BA3FED394004066900040E0FFEE1482
:1024CE00FD900003121BA3FB122FEFEF6051900142
:1024DE002DE0FBA3E0FAA3E0F990000274FF803C2C
:1024EE0090012DE0FBA3E0FAA3E0F9900002121B8D
:1024FE00A3FEC394075028900040E0FFEE04FD9029
:10250E000003121BA3FB122FEFEF601390012DE0BF
:10251E00FBA3E0FAA3E0F99000027401121BD02293
:1031A500900132E0C413135403FF12328A900131A7
:1031B500E0FF123340A3E0543FFF123351E4FDFC1E
:1031C500900132E07008ED4C70047FFF801590018E
:1031D50031E0FBB407047F808009EB70047F018038
:1031E50002E4FF1232E90DBD00010CED64044C70E0
:0131F500CF0A
:0131F60022B6
:102E2900FF90000F121BA3FD90012BE0FAA3E0FB1A
:072E3900900131EFF0A90543
:102E4000EB4A7060FFFE90005475F022EF121DFCFB
:102E5000EE75F022A42583F583E0FCA3E04C6036F8
:102E600090005275F022EF121DFCEE75F022A425A1
:102E700083F583E0FD900131E0B5051A90005375AC
:102E8000F022EF121DFCEE75F022A42583F583E0FD
:102E9000B501037F00220FBF00010EEF64054E70E5
:102EA000A57F01229000FCE0FF900131E0B5070A08
:0C2EB0009000FDE0B501037F00227F01CF
:012EBC0022F3
:1010C6007C007D22121C3774502FF974003EFA7B87
:0310D600017D0198
:1010D900900128EBF0A3EAF0A3E9F0A3ECF0A3ED6B
:0110E900F016
:1010EA00E4A3F0A3F0900128E0FBA3E0FAA3E0F95F
:1010FA0090000C121D2BFF90012DE0FCA3E0FDC314
:10110A009FEC95F040030216EBE9240EF9E43AFA53
:10111A00EDAE047802C333CE33CED8F929F9EA3ECC
:10112A00FA78317C017D017E007F04121B64123142
:10113A00A590012DE0FEA3E07802C333CE33CED8CA
:10114A00F9FF900128E0FBA3E0FAA3E02FF9EA3EB9
:10115A00FA900010121D2BFFE5F060030216DAEF79
:10116A0024FE70030212CA147003021430147003AE
:10117A00021585240360030216DA90000F121BA3DE
:10118A00FED39400406D90000E121BA3FDEE24FCCA
:10119A00122FE9EF605D90012DE0FEA3E07802C313
:1011AA0033CE33CED8F9FF900128E0FBA3E0FAA3AF
:1011BA00E02FF9EA3EFA90000E121BA3FF90000FEF
:1011CA00121BA324FC122E30EF602890012DE0FEA2
:1011DA00A3E07802C333CE33CED8F9FF900128E0DA
:1011EA00FBA3E0FAA3E02FF9EA3EFA90000F74FCA1
:1011FA0002161290012DE0FEA3E07802C333CE332B
:10120A00CED8F9FF900128E0FBA3E0FAA3E02FF97A
:10121A00EA3EFA90000E121BA3FD90000F121BA3C8
:10122A0024FC122182900128E0FBA3E0FAA3E0F952
:10123A0090000C74FFF5F0121D6390012DE0FFA3DE
:10124A00E0A3CFF0A3EFF0900128E0FBA3E0FAA31C
:10125A00E0F990000C121D2BFF90012FE0FCA3E097
:10126A00FDC39FEC95F040030216DAEDAE04780256
:10127A00C333CE33CED8F9FF900128E0FBA3E0FABE
:10128A00A3E02FF9EA3EFA900012121BA390000E77
:10129A00121C15900013121BA390000F121C15901C
:1012AA000014121D2BFF900010E5F08FF0121DCFD5
:1012BA00900130E004F0708F90012FE004F08087F5
:1012CA0090012DE0FEA3E07802C333CE33CED8F9E5
:1012DA00FF900128E0FBA3E0FAA3E02FF9EA3EFA27
:1012EA0090000F121BA3FEC3945C506D90000E1267
:1012FA001BA3FDEE2404122FE9EF605D90012DE09F
:10130A00FEA3E07802C333CE33CED8F9FF9001288A
:10131A00E0FBA3E0FAA3E02FF9EA3EFA90000E12EE
:10132A001BA3FF90000F121BA32404122E30EF60A0
:10133A002890012DE0FEA3E07802C333CE33CED845
:10134A00F9FF900128E0FBA3E0FAA3E02FF9EA3EB7
:10135A00FA90000F740402161290012DE0FEA3E029
:10136A007802C333CE33CED8F9FF900128E0FBA32D
:10137A00E0FAA3E02FF9EA3EFA90000E121BA3FD51
:10138A0090000F121BA32404122182900128E0FB73
:10139A00A3E0FAA3E0F990000C74FFF5F0121D63C4
:1013AA0090012DE0FFA3E0A3CFF0A3EFF090012876
:1013BA00E0FBA3E0FAA3E0F990000C121D2BFF90CA
:1013CA00012FE0FCA3E0FDC39FEC95F04003021659
:1013DA00DAEDAE047802C333CE33CED8F9FF9001EA
:1013EA0028E0FBA3E0FAA3E02FF9EA3EFA90001204
:1013FA00121BA390000E121C15900013121BA3902F
:10140A00000F121C15900014121D2BFF900010E5FE
:10141A00F08FF0121DCF900130E004F0708F900130
:10142A002FE004F0808790012DE0FEA3E07802C34C
:10143A0033CE33CED8F9FF900128E0FBA3E0FAA31C
:10144A00E02FF9EA3EFA90000E121BA3FED3940095
:10145A004064EE14FD90000F121BA3122FE9EF60F7
:10146A005590012DE0FEA3E07802C333CE33CED8E7
:10147A00F9FF900128E0FBA3E0FAA3E02FF9EA3E86
:10148A00FA90000E121BA314122E29EF6028900165
:10149A002DE0FEA3E07802C333CE33CED8F9FF9015
:1014AA000128E0FBA3E0FAA3E02FF9EA3EFA900054
:1014BA000E74FF02161290012DE0FEA3E07802C31B
:1014CA0033CE33CED8F9FF900128E0FBA3E0FAA38C
:1014DA00E02FF9EA3EFA90000E121BA31412217BA8
:1014EA00900128E0FBA3E0FAA3E0F990000C74FF56
:1014FA00F5F0121D6390012DE0FFA3E0A3CFF0A346
:10150A00EFF0900128E0FBA3E0FAA3E0F990000CC9
:10151A00121D2BFF90012FE0FCA3E0FDC39FEC9569
:10152A00F040030216DAEDAE047802C333CE33CEAE
:10153A00D8F9FF900128E0FBA3E0FAA3E02FF9EA2B
:10154A003EFA900012121BA390000E121C15900076
:10155A0013121BA390000F121C15900014121D2BBE
:10156A00FF900010E5F08FF0121DCF900130E004DB
:10157A00F0708F90012FE004F0808790012DE0FE3B
:10158A00A3E07802C333CE33CED8F9FF900128E026
:10159A00FBA3E0FAA3E02FF9EA3EFA90000E121B31
:1015AA00A3FEC394075067EE04FD90000F121BA31D
:1015BA00122FE9EF605890012DE0FEA3E07802C3F4
:1015CA0033CE33CED8F9FF900128E0FBA3E0FAA38B
:1015DA00E02FF9EA3EFA90000E121BA304122E29FC
:1015EA00EF602B90012DE0FEA3E07802C333CE33E7
:1015FA00CED8F9FF900128E0FBA3E0FAA3E02FF987
:10160A00EA3EFA90000E7401121BD00216DA90011B
:10161A002DE0FEA3E07802C333CE33CED8F9FF9093
:10162A000128E0FBA3E0FAA3E02FF9EA3EFA9000D2
:10163A000E121BA30412217B900128E0FBA3E0FAFF
:10164A00A3E0F990000C74FFF5F0121D6390012DD0
:10165A00E0FFA3E0A3CFF0A3EFF0900128E0FBA303
:10166A00E0FAA3E0F990000C121D2BFF90012FE085
:10167A00FCA3E0FDC39FEC95F05055EDAE04780253
:10168A00C333CE33CED8F9FF900128E0FBA3E0FAAA
:10169A00A3E02FF9EA3EFA900012121BA390000E63
:1016AA00121C15900013121BA390000F121C159008
:1016BA000014121D2BFF900010E5F08FF0121DCFC1
:1016CA00900130E004F0709290012FE004F0808ADB
:1016DA0090012EE004F0700690012DE004F0021053
:0116EA00EF10
:0116EB0022DC
:102F4900900128EBF0A3EAF0A3E9F090004EE0FE2F
:102F5900A3E0FFEE706BEF14602014602C1460384E
:102F690014604414605524057057900128E0FBA3B0
:102F7900E0FAA3E0F9122C088047900128E0FBA3AE
:102F8900E0FAA3E0F97F01802B900128E0FBA3E0A0
:102F9900FAA3E0F97F02801C900128E0FBA3E0FA84
:102FA900A3E0F97F03800D900128E0FBA3E0FAA3D9
:102FB900E0F97F047E0012237E800612338EBF055E
:0B2FC900FA90004EE4F0A37406F02222
:082D7700900128EEF0A3EFF03B
:102D7F00E4A3F0A3F0900128E0FEA3E0FFC39001CD
:102D8F002BE09F90012AE09E4003022E2890004BDB
:102D9F00E0FBA3E0FAA3E0F990012AE0FEA3E0F53F
:102DAF00828E83121BA3C413135403FF12328A9013
:102DBF000128E0FEA3E0FF90012BE02FFF90012AF6
:102DCF00E03EFE90004BE0FBA3E0FAA3E0F98F8218
:102DDF008E8312333C90004BE0FBA3E0FAA3E0F9A3
:102DEF0090012AE0FEA3E0F5828E83121BA3FF124F
:102DFF003351E4FDFC7FFF1232E90DBD00010CEDF4
:102E0F0064044C70F090012BE004F06003022D84F9
:092E1F0090012AE004F0022D8468
:012E28002287
:081E2000900128EEF0A3EFF0A1
:101E2800E4FFFE900040E0FDC3EF9DEE94005033C8
:101E380090004BE0FBA3E0FAA3E02FF9EA3EFA900A
:101E48000040E075F002A4F58285F083121BA3FD23
:101E580074002FF58274003EF583EDF00FBF00018A
:101E68000E80C0900128E0FEA3E0FFEE600302218F
:101E78007AEF24FE7003021F18147003021F9C14CB
:101E880070030220201470030220CD240460030292
:101E9800217AE490013DF0A3F0A3F07B01A304F0C4
:101EA800A37400F074501227F690013D7418F0E402
:101EB800A3F0A3F07B01A304F0A37400F0A3747251
:101EC800F07F011227FA90013D7448F0E4A3F0A3D3
:101ED800F07B01A304F0A37400F0A37494F0E41B56
:101EE8007D01FC7F02FE1228001227E090013D745C
:101EF80014F0E4A3F0A3F07B01A304F0A37400F0B2
:101F0800A374D8F00B7D017C007F047E000221774A
:101F1800E490013DF0A3F0A3F07B01A304F0A374C7
:101F280000F0A374501227F790013D741CF0E4A34D
:101F3800F0A3F0A304F0A37400F0A37472F07B0381
:101F48007D017C007F047E0012280090013D7440D2
:101F5800F0E4A3F0A3F0A304F0A37400F0A3749436
:101F6800F07B037D017C007F047E0012280012278D
:101F7800E090013D7430F0E4A3F0A3F07B01A304EA
:101F8800F0A37400F0A374D8F0E41B7D01FC7F017A
:101F9800FE022177E490013DF0A3F0A3F07B01A3BA
:101FA80004F0A37400F0A374501227F790013D7455
:101FB80014F0E4A3F0A3F0A304F0A37400F0A37456
:101FC80072F07B037D017C007F047E001228009064
:101FD800013D744CF0E4A3F0A3F0A304F0A3740053
:101FE800F0A37494F07B037D017C007F047E0012D3
:101FF80028001227E090013D7430F0E4A3F0A3F02C
:102008007B01A304F0A37400F0A374D8F0E41B7D53
:1020180001FC7F01FE022177E490013DF0A3F0A3CB
:10202800F07B01A304F0A37400F0A37450F0E41B48
:102038007D01FC7F02FE12280090013D7414F0E43B
:10204800A3F0A3F07B01A304F0A37400F0A37472BF
:10205800F07D017C007F047E0012280090013D7411
:102068004CF0E4A3F0A3F07B01A304F0A37400F008
:10207800A37494F07D017C007F047E0012280090F8
:10208800013D745CF0E4A3F0A3F07B01A304F0A38A
:102098007400F0A374B6F0E41B7D01FC7F01FE120E
:1020A800280090013D7430F0E4A3F0A3F07B01A375
:1020B80004F0A37400F0A374D8F0E41B7D01FC7F46
:1020C80004FE022177E490013DF0A3F0A3F07B0128
:1020D800A304F0A37400F0A37450F0E41B7D02FC89
:1020E8007F04FE12280090013D7414F0E4A3F0A3CD
:1020F800F07B01A304F0A37400F0A37472F0E41B56
:102108007D02FC7F02FE12280090013D744CF0E431
:10211800A3F0A3F0A304F0A37400F0A37494F07BDD
:10212800037D027C007F047E0012280090013D742C
:1021380020F0E4A3F0A3F07B01A304F0A37400F063
:10214800A374B6F0E41B7D02FC7F04FE1228009005
:10215800013D7430F0E4A3F0A3F07B01A304F0A3E5
:102168007400F0A374D8F0E41B7D02FC7F01FE121A
:0221780028003D
:01217A002242
:10099700E490004EF0A3F0900045F0A3F0900049DA
:1009A700E0FEA3E0FF900048E02FFF900047E03E05
:1009B7006003020A99EF14603614605B1470030237
:1009C7000A46147003020A6E24046003020A99900F
:1009D7000120E4F0A304F090004B74FFF0A3740629
:1009E700F0A374DEF0900040742DF07F01804790F3
:1009F7000120E4F0A37404F090004B74FFF0A3749B
:100A070008F0A37473F09000407431F07F047E0007
:100A1700121E207F318076900120E4F0A37402F04B
:100A270090004B74FFF0A37407F0A37465F0900077
:100A370040742DF07F027E00121E207F2D804E9085
:100A47000120E4F0A37405F090004B74FFF0A37449
:100A570009F0A37410F0900040742DF07F057E001C
:100A6700121E207F2D8026900120E4F0A37403F04E
:100A770090004B74FFF0A37407F0A374ECF09000A0
:100A870040742DF07F037E00121E207F2D7E001202
:100A97002D7790013D7428F0E4A3F0A3F0A304F0B0
:100AA700A37400F0A374FAF07B077D057C007F0335
:100AB7007E00122800E4FF12328A7F071233407F3C
:100AC70030123351E490011EF0A3F090011EE0FEB6
:100AD700A3E0FFC39404EE940050131232DC90019C
:100AE7001FE004F070E590011EE004F080DD12289D
:100AF700FF7F0112328AE490011EF0A3F090011EDD
:100B0700E0FEA3E0FFC39408EE9400501A123340AE
:100B17007F201233517FFF1232E9E004F070DE903C
:100B2700011EE004F080D6E490011EF0A3F09001CE
:100B37001EE0FEA3E0FFC39404EE940050131216C8
:100B4700EC90011FE004F070E590011EE004F080D6
:100B5700DD758C3C758AB0D2AFD2A9D28C9000FEDD
:100B6700E07002A3E0700302105A1232AEEF700376
:100B7700020D2E900126E0FCA3E0FD900120E0FE8F
:100B8700A3E0FF121C37120003E004F07006900187
:100B970020E004F0E4FF12328A7BFF7A06792E7D8B
:100BA700287F03122CDB7BFF7A06793E7D307F039B
:100BB700122CDB7BFF7A06794E7D387F03122CDB04
:100BC70012324412305E900120E0FEA3E0FFEE6097
:100BD70003020C6CEF24FD602314603E14605E2456
:100BE7000360030210C290004B74FFF0A37407F078
:100BF700A37465F0900040742DF0805D90004B74F5
:100C0700FFF0A37407F0A374ECF0900040742DF08C
:100C1700900120E0FEA3E0FF803F90004B74FFF0BF
:100C2700A37408F0A37473F09000407431F090013E
:100C370020E0FEA3E0FF121E207F31802190004BB1
:100C470074FFF0A37409F0A37410F0900040742DA2
:100C5700F0900120E0FEA3E0FF121E207F2D7E0012
:100C6700122D7780030210C290013D7428F0E4A38F
:100C7700F0A3F0A304F0A37400F0A374FAF07B07C9
:100C87007D057C007F037E00122800E4FF12328A74
:100C97007F071233407F30123351E490011EF0A3D7
:100CA700F090011EE0FEA3E0FFC39404EE94005011
:100CB700131232DC90011FE004F070E590011EE092
:100CC70004F080DD1228FF7F0112328AE490011EB2
:100CD700F0A3F090011EE0FEA3E0FFC39408EE949A
:100CE70000501A1233407F201233517FFF1232E92E
:100CF700E004F070DE90011EE004F080D6E490017D
:100D07001EF0A3F090011EE0FEA3E0FFC39404EEE3
:100D1700940050131216EC90011FE004F070E59058
:100D2700011EE004F080DD7F0112328A7BFF7A0624
:100D3700790E7D207F04122CDB7BFF7A0579DE7D1F
:100D4700287F04122CDB9000FFE0C4F8540FC8681A
:100D5700FF9000FEE0C454F048FE742E2FF974058E
:100D67003EFA7BFF7D307F04122CDB7B017A007912
:100D7700FA1216FDE490011EF0A3F090011EE0FEAA
:100D8700A3E0FFC39405EE940050131216EC9001F4
:100D97001FE004F070E590011EE004F080DDC390D1
:100DA7000042E0940A900041E09400405C7B017AA5
:100DB7000079FAE4FDFC1210D9E490011EF0A3F0CB
:100DC70090011EE0FEA3E0FFC39405EE94005032AD
:100DD70090005475F022EF121DFCEE75F022A42549
:100DE70083F583E0FEA3E04E600890011EE0FE124B
:100DF70010C690011FE004F070C690011EE004F0D9
:100E070080BEE4900041F0A3F0C390011DE094146C
:100E170090011CE094005003021035900127E02454
:100E2700FFF0900126E034FFF0E490011EF0A3F0FC
:100E370090011EE0FEA3E0FFC39405EE940040037B
:100E470002101B900122E4F0A304F090005075F00B
:100E570022EF121DFCEE75F022A42583F583E0FF37
:100E6700A3E0900124CFF0A3EFF0900124E0FEA3CC
:100E7700E0FFEE6003020F80EF24FE605D14700355
:100E8700020F2A147003020F5124036003020F801C
:100E970090011EE0FEA3E090005375F022121DFCA6
:100EA700EE75F022A42583F583E0FF7003020F801F
:100EB70090011EE0FCA3E090005275F022121DFC89
:100EC700EC75F022A42583F583E0FDEF24FC122FB7
:100ED700E9EF7003020F80020F7990011EE0FEA375
:100EE700E090005375F022121DFCEE75F022A42548
:100EF70083F583E0FF645C7003020F8090011EE0BE
:100F0700FCA3E090005275F022121DFCEC75F02254
:100F1700A42583F583E0FDEF2404122FE9EF605940
:100F2700020F7990011EE0FEA3E0FF90005275F0DA
:100F370022121DFCEE75F022A42583F583E0FD60E7
:100F47003814122FD4EF6031802890011EE0FEA3E1
:100F5700E0FF90005275F022121DFCEE75F022A4FE
:100F67002583F583E0FD6407600FED04122FD4EFAE
:100F77006007E4900122F0A3F0900122E07002A341
:100F8700E0601A1231F77C007D04121C9EED2401EB
:100F9700FEE43C900124F0A3CEF0020E7190011EF6
:100FA700E0FEA3E0FF90005C75F022121DFCEE75D9
:100FB700F022A42583F583E0FCA3E064014C601FC5
:100FC7007C007D22121C3774502FF974003EFA7B87
:100FD70001122C0890011EE0FEA3E0FF1210C6903C
:100FE700011EE0FEA3E0FF7C007D22121C37745037
:100FF7002FF974003EFA7B01900124E0FEA3E0FF85
:1010070012237E90011FE004F0700690011EE00499
:10101700F0020E37900120E0FEA3E0FF900126E0EA
:10102700FCA3E0FD122914E490011CF0A3F0122E9A
:10103700BDEF701F900126E07002A3E060157B01F1
:101047007A0079FA1216FD7B017A0079FA122F4994
:10105700020B64E4FF12328A7BFF7A06795E7D20F9
:101067007F03122CDB7BFF7A06796E7D287F0312C4
:101077002CDB7BFF7A06797E7D307F03122CDB7BAE
:10108700FF7A06798E7D387F03122CDB7F011232BF
:101097008A7BFF7A06799EE4FD7F03122CDB7BFFB8
:1010A7007A0679AE7D087F03122CDB123244E49076
:0E10B7000049F0A3F0900047F0A3F0122B22A6
:0110C5002208
:03000B0002314E71
:0F314E00C0E0C083C082C0D075D000C006C007EB
:10315D00758C3C758AB090011DE004F070069001ED
:10316D001CE004F0900042E004F07006900041E095
:10317D0004F090011DE020E01212338E7E00EF640A
:0B318D0006600890004EEEF0A3EFF08B
:0D319800D007D006D0D0D082D083D0E03256
:102B2200E4FF12328A7BFF7A0079EEE4FDFF123075
:102B3200F87BFF7A00790E7D10E4FF1230F87BFFFC
:102B42007A00792E7D20E4FF1230F87BFF7A00793B
:102B5200CE7D30E4FF1230F87BFF7A00790E7D10D3
:102B62007F021230F87BFF7A00794E7D207F0212BD
:102B720030F87BFF7A0079CE7D307F021230F87B0D
:102B8200FF7A01790EE4FD7F041230F87BFF7A00B0
:102B9200790E7D107F041230F87BFF7A00796E7D0A
:102BA200207F041230F87BFF7A0079CE7D307F04DB
:102BB2001230F87F0112328A7BFF7A00790E7D5043
:102BC200E4FF1230F87BFF7A00798E7D60E4FF1219
:102BD20030F87BFF7A0079CE7D70E4FF1230F87B0B
:102BE200FF7A00790E7D507F021230F87BFF7A0067
:102BF20079AE7D607F021230F87BFF7A0079CE7D5C
:062C0200707F020230F8B1
:10305E0079B8E490012AF0A3F0900128F0A3F0FFD4
:10306E0012328A7F4012335A7F0112328A7F401207
:10307E00335AE9D394BF505A90012AA3E0FF12327B
:10308E008A90012AE07002A3E070047F0180027F23
:10309E000090012AE4F0A3EFF0AF0112335A900131
:1030AE002AE07002A3E0700109E4FAFBC3EB94403E
:1030BE00EA940050BD900128E475F001121CEAFE5E
:1030CE00742E25F0F58274011232E30BBB00010A57
:0230DE0080DA96
:0130E00022CD
:1026A9007F3F12335A7F0212324D122B2275892134
:1026B900759840E4F587758DFA758BFAD28ED29CA0
:1026C90012338EEF14602114604D147003022758E1
:1026D90014700302278C1470030227D7240570E0B5
:1026E90012305E12099780D8900049E0FEA3E0FFFE
:1026F9004E60CD1230E7E4900049F0A31232839086
:102709000047A3E0FF7BFF7A0079EEE4FD1230F881
:10271900E590F460AB80F9900049E0FEA3E0FF4E3C
:10272900709E900047E07004A3E064046092123048
:10273900E712327C900047A3E0FF7BFF7A0079EE35
:10274900E4FD1230F8E590F470030226C980F69092
:102759000047E07002A3E070030226C91230E1903D
:102769000048E024FEF0900047E034FFF0A3E0FFCA
:102779007BFF7A0079EE1230F8E590F470030226B7
:10278900C980F6900047E0FEA3E0FF64044E7003A1
:102799000226C9A3E0FCA3E0FD4C6009EF64024EE8
:1027A90070030226C9AF051230E7900048E0240201
:1027B900F0900047E03400F0A3E0FF7BFF7A007956
:1027C900EE1230F8E590F470030226C980F6123053
:0727D9005E1209970226C9F8
:101A9400E709F608DFFA8046E709F208DFFA803E34
:101AA40088828C83E709F0A3DFFA8032E309F60821
:101AB400DFFA8078E309F208DFFA807088828C8389
:101AC400E309F0A3DFFA806489828A83E0A3F6083D
:101AD400DFFA805889828A83E0A3F208DFFA804C17
:101AE40080D280FA80C680D4806980F280338010EE
:101AF40080A680EA809A80A880DA80E280CA803357
:101B040089828A83ECFAE493A3C8C582C8CCC583CE
:101B1400CCF0A3C8C582C8CCC583CCDFE9DEE7809E
:101B24000D89828A83E493A3F608DFF9ECFAA9F01D
:101B3400EDFB2289828A83ECFAE0A3C8C582C8CC73
:101B4400C583CCF0A3C8C582C8CCC583CCDFEADE8C
:101B5400E880DB89828A83E493A3F208DFF980CCEE
:101B640088F0EF60010E4E60C388F0ED2402B404E7
:101B74000050B9F582EB2402B4040050AF2323458E
:061B84008223901AE473B5
:101B8A00BB010689828A83E0225002E722BBFE0259
:091B9A00E32289828A83E493228C
:101BA300BB010CE58229F582E5833AF583E02250F7
:101BB30006E92582F8E622BBFE06E92582F8E22241
:0D1BC300E58229F582E5833AF583E493225B
:101BD000BB010FF8E58229F582E5833AF583E02819
:101BE000F0225009C58229F8E58226F622BBFE09BB
:101BF000C58229F8E22582F222F8EA2583F583E9F5
:031C000093282204
:101C0300BB010689828A83F0225002F722BBFE01C0
:021C1300F322BA
:101C1500F8BB010DE58229F582E5833AF583E8F005
:101C2500225006E92582C8F622BBFE05E92582C8B1
:021C3500F22299
:101C3700EF8DF0A4A8F0CF8CF0A428CE8DF0A42EC1
:021C4700FE227B
:101C4900BC000BBE0029EF8DF084FFADF022E4CC7F
:101C5900F875F008EF2FFFEE33FEEC33FCEE9DEC48
:101C6900984005FCEE9DFE0FD5F0E9E4CEFD22ED8E
:101C7900F8F5F0EE8420D21CFEADF075F008EF2FD8
:101C8900FFED33FD4007985006D5F0F222C398FDC9
:051C99000FD5F0EA2266
:101C9E00C2D5EC30E709B2D5E4C39DFDE49CFCEE61
:101CAE0030E715B2D5E4C39FFFE49EFE121C49C374
:101CBE00E49DFDE49CFC8003121C4930D507C3E46F
:061CCE009FFFE49EFE22D0
:101CD400C5F0F8A3E028F0C5F0F8E582158270029B
:061CE4001583E038F02238
:101CEA00A3F8E0C5F025F0F0E582158270021583AD
:061CFA00E0C838F0E8220A
:101D0000BB010A89828A83E0F5F0A3E022500687AE
:101D1000F009E71922BBFE07E3F5F009E319228970
:0B1D2000828A83E493F5F074019322A3
:101D2B00BB0110E58229F582E5833AF583E0F5F0F6
:101D3B00A3E0225009E92582F886F008E622BBFED3
:101D4B000AE92582F8E2F5F008E222E5832AF58319
:081D5B00E993F5F0A3E99322DE
:101D6300BB010DC58229C582C5833AC583021CD434
:101D73005011C58229F808E5F026F618F5F0E5823A
:101D830036F622BBFE11C58229F808E225F0F5F0EC
:101D9300F218E23582F222F8E58229F582E5832AF8
:0D1DA300F58374019325F0F5F0E4933822E8
:101DB000BB010A89828A83F0E5F0A3F0225006F77E
:0F1DC00009A7F01922BBFE06F3E5F009F319227B
:101DCF00F8BB0111E58229F582E5833AF583E8F046
:101DDF00E5F0A3F0225009E92582C8F608A6F02203
:0D1DEF00BBFE09E92582C8F2E5F008F222EA
:0C1DFC00A42582F582E5F03583F58322F2
:1031F700900147121E087810EC4D4E4F70047CA5C5
:103207007DA5C3EC13FCED13FDEE13FEEF13FF508A
:1032170010EC64CCFCED644CFDEE644EFEEF64CE26
:10322700FFD8DF900147121E14EE547FFE22900153
:0D32370047EEF0EFA3F0A374A5F0A3F02282
:0C1E0800E0FCA3E0FDA3E0FEA3E0FF224D
:0C1E1400ECF0A3EDF0A3EEF0A3EFF02241
:00000001FF
